{
  "_format": "hh-sol-artifact-1",
  "contractName": "Contract",
  "sourceName": "contracts/Contract.sol",
  "abi": [
    {
      "anonymous": false,
      "inputs": [
        {
          "indexed": false,
          "internalType": "address",
          "name": "owner",
          "type": "address"
        },
        {
          "indexed": false,
          "internalType": "uint256",
          "name": "i",
          "type": "uint256"
        }
      ],
      "name": "EraseValue",
      "type": "event"
    },
    {
      "anonymous": false,
      "inputs": [
        {
          "indexed": true,
          "internalType": "address",
          "name": "previousOwner",
          "type": "address"
        },
        {
          "indexed": true,
          "internalType": "address",
          "name": "newOwner",
          "type": "address"
        }
      ],
      "name": "OwnershipTransferred",
      "type": "event"
    },
    {
      "anonymous": false,
      "inputs": [
        {
          "indexed": false,
          "internalType": "address",
          "name": "owner",
          "type": "address"
        },
        {
          "indexed": false,
          "internalType": "uint256",
          "name": "i",
          "type": "uint256"
        }
      ],
      "name": "WriteValue",
      "type": "event"
    },
    {
      "inputs": [
        {
          "internalType": "uint256",
          "name": "i",
          "type": "uint256"
        }
      ],
      "name": "eraseValue",
      "outputs": [
        {
          "internalType": "bool",
          "name": "",
          "type": "bool"
        }
      ],
      "stateMutability": "nonpayable",
      "type": "function"
    },
    {
      "inputs": [
        {
          "internalType": "address",
          "name": "author",
          "type": "address"
        }
      ],
      "name": "getValues",
      "outputs": [
        {
          "internalType": "string[]",
          "name": "",
          "type": "string[]"
        }
      ],
      "stateMutability": "view",
      "type": "function"
    },
    {
      "inputs": [],
      "name": "owner",
      "outputs": [
        {
          "internalType": "address",
          "name": "",
          "type": "address"
        }
      ],
      "stateMutability": "view",
      "type": "function"
    },
    {
      "inputs": [],
      "name": "renounceOwnership",
      "outputs": [],
      "stateMutability": "nonpayable",
      "type": "function"
    },
    {
      "inputs": [
        {
          "internalType": "address",
          "name": "newOwner",
          "type": "address"
        }
      ],
      "name": "transferOwnership",
      "outputs": [],
      "stateMutability": "nonpayable",
      "type": "function"
    },
    {
      "inputs": [
        {
          "internalType": "string",
          "name": "text",
          "type": "string"
        }
      ],
      "name": "writeValue",
      "outputs": [
        {
          "internalType": "uint256",
          "name": "",
          "type": "uint256"
        }
      ],
      "stateMutability": "nonpayable",
      "type": "function"
    }
  ],
  "bytecode": "0x608060405234801561001057600080fd5b5061002d61002261003260201b60201c565b61003a60201b60201c565b6100fe565b600033905090565b60008060009054906101000a900473ffffffffffffffffffffffffffffffffffffffff169050816000806101000a81548173ffffffffffffffffffffffffffffffffffffffff021916908373ffffffffffffffffffffffffffffffffffffffff1602179055508173ffffffffffffffffffffffffffffffffffffffff168173ffffffffffffffffffffffffffffffffffffffff167f8be0079c531659141344cd1fd0a4f28419497f9722a3daafe3b4186f6b6457e060405160405180910390a35050565b610ddf8061010d6000396000f3fe608060405234801561001057600080fd5b50600436106100625760003560e01c80635ad8c878146100675780636aa5bc1314610097578063715018a6146100c75780638da5cb5b146100d1578063924f364d146100ef578063f2fde38b1461011f575b600080fd5b610081600480360381019061007c91906107a4565b61013b565b60405161008e91906107ec565b60405180910390f35b6100b160048036038101906100ac919061094d565b6101e6565b6040516100be91906109a5565b60405180910390f35b6100cf6102ea565b005b6100d9610372565b6040516100e69190610a01565b60405180910390f35b61010960048036038101906101049190610a48565b61039b565b6040516101169190610bbf565b60405180910390f35b61013960048036038101906101349190610a48565b6104b3565b005b6000600160003373ffffffffffffffffffffffffffffffffffffffff1673ffffffffffffffffffffffffffffffffffffffff168152602001908152602001600020828154811061018e5761018d610be1565b5b9060005260206000200160006101a49190610677565b7f74d7866b619e5bc1753b6f9bb387c4cf7cefe492617caf56f6a8c7aa0be554ea33836040516101d5929190610c10565b60405180910390a160019050919050565b6000600160003373ffffffffffffffffffffffffffffffffffffffff1673ffffffffffffffffffffffffffffffffffffffff168152602001908152602001600020829080600181540180825580915050600190039060005260206000200160009091909190915090805190602001906102609291906106b7565b506000600160003373ffffffffffffffffffffffffffffffffffffffff1673ffffffffffffffffffffffffffffffffffffffff1681526020019081526020016000208054905090507fe4d7e22fea312411a29f25616efbefffda15eefb5a1ea4121779321bc1c72a2133826040516102d9929190610c10565b60405180910390a180915050919050565b6102f26105ab565b73ffffffffffffffffffffffffffffffffffffffff16610310610372565b73ffffffffffffffffffffffffffffffffffffffff1614610366576040517f08c379a000000000000000000000000000000000000000000000000000000000815260040161035d90610c96565b60405180910390fd5b61037060006105b3565b565b60008060009054906101000a900473ffffffffffffffffffffffffffffffffffffffff16905090565b6060600160008373ffffffffffffffffffffffffffffffffffffffff1673ffffffffffffffffffffffffffffffffffffffff168152602001908152602001600020805480602002602001604051908101604052809291908181526020016000905b828210156104a857838290600052602060002001805461041b90610ce5565b80601f016020809104026020016040519081016040528092919081815260200182805461044790610ce5565b80156104945780601f1061046957610100808354040283529160200191610494565b820191906000526020600020905b81548152906001019060200180831161047757829003601f168201915b5050505050815260200190600101906103fc565b505050509050919050565b6104bb6105ab565b73ffffffffffffffffffffffffffffffffffffffff166104d9610372565b73ffffffffffffffffffffffffffffffffffffffff161461052f576040517f08c379a000000000000000000000000000000000000000000000000000000000815260040161052690610c96565b60405180910390fd5b600073ffffffffffffffffffffffffffffffffffffffff168173ffffffffffffffffffffffffffffffffffffffff16141561059f576040517f08c379a000000000000000000000000000000000000000000000000000000000815260040161059690610d89565b60405180910390fd5b6105a8816105b3565b50565b600033905090565b60008060009054906101000a900473ffffffffffffffffffffffffffffffffffffffff169050816000806101000a81548173ffffffffffffffffffffffffffffffffffffffff021916908373ffffffffffffffffffffffffffffffffffffffff1602179055508173ffffffffffffffffffffffffffffffffffffffff168173ffffffffffffffffffffffffffffffffffffffff167f8be0079c531659141344cd1fd0a4f28419497f9722a3daafe3b4186f6b6457e060405160405180910390a35050565b50805461068390610ce5565b6000825580601f1061069557506106b4565b601f0160209004906000526020600020908101906106b3919061073d565b5b50565b8280546106c390610ce5565b90600052602060002090601f0160209004810192826106e5576000855561072c565b82601f106106fe57805160ff191683800117855561072c565b8280016001018555821561072c579182015b8281111561072b578251825591602001919060010190610710565b5b509050610739919061073d565b5090565b5b8082111561075657600081600090555060010161073e565b5090565b6000604051905090565b600080fd5b600080fd5b6000819050919050565b6107818161076e565b811461078c57600080fd5b50565b60008135905061079e81610778565b92915050565b6000602082840312156107ba576107b9610764565b5b60006107c88482850161078f565b91505092915050565b60008115159050919050565b6107e6816107d1565b82525050565b600060208201905061080160008301846107dd565b92915050565b600080fd5b600080fd5b6000601f19601f8301169050919050565b7f4e487b7100000000000000000000000000000000000000000000000000000000600052604160045260246000fd5b61085a82610811565b810181811067ffffffffffffffff8211171561087957610878610822565b5b80604052505050565b600061088c61075a565b90506108988282610851565b919050565b600067ffffffffffffffff8211156108b8576108b7610822565b5b6108c182610811565b9050602081019050919050565b82818337600083830152505050565b60006108f06108eb8461089d565b610882565b90508281526020810184848401111561090c5761090b61080c565b5b6109178482856108ce565b509392505050565b600082601f83011261093457610933610807565b5b81356109448482602086016108dd565b91505092915050565b60006020828403121561096357610962610764565b5b600082013567ffffffffffffffff81111561098157610980610769565b5b61098d8482850161091f565b91505092915050565b61099f8161076e565b82525050565b60006020820190506109ba6000830184610996565b92915050565b600073ffffffffffffffffffffffffffffffffffffffff82169050919050565b60006109eb826109c0565b9050919050565b6109fb816109e0565b82525050565b6000602082019050610a1660008301846109f2565b92915050565b610a25816109e0565b8114610a3057600080fd5b50565b600081359050610a4281610a1c565b92915050565b600060208284031215610a5e57610a5d610764565b5b6000610a6c84828501610a33565b91505092915050565b600081519050919050565b600082825260208201905092915050565b6000819050602082019050919050565b600081519050919050565b600082825260208201905092915050565b60005b83811015610adb578082015181840152602081019050610ac0565b83811115610aea576000848401525b50505050565b6000610afb82610aa1565b610b058185610aac565b9350610b15818560208601610abd565b610b1e81610811565b840191505092915050565b6000610b358383610af0565b905092915050565b6000602082019050919050565b6000610b5582610a75565b610b5f8185610a80565b935083602082028501610b7185610a91565b8060005b85811015610bad5784840389528151610b8e8582610b29565b9450610b9983610b3d565b925060208a01995050600181019050610b75565b50829750879550505050505092915050565b60006020820190508181036000830152610bd98184610b4a565b905092915050565b7f4e487b7100000000000000000000000000000000000000000000000000000000600052603260045260246000fd5b6000604082019050610c2560008301856109f2565b610c326020830184610996565b9392505050565b600082825260208201905092915050565b7f4f776e61626c653a2063616c6c6572206973206e6f7420746865206f776e6572600082015250565b6000610c80602083610c39565b9150610c8b82610c4a565b602082019050919050565b60006020820190508181036000830152610caf81610c73565b9050919050565b7f4e487b7100000000000000000000000000000000000000000000000000000000600052602260045260246000fd5b60006002820490506001821680610cfd57607f821691505b60208210811415610d1157610d10610cb6565b5b50919050565b7f4f776e61626c653a206e6577206f776e657220697320746865207a65726f206160008201527f6464726573730000000000000000000000000000000000000000000000000000602082015250565b6000610d73602683610c39565b9150610d7e82610d17565b604082019050919050565b60006020820190508181036000830152610da281610d66565b905091905056fea2646970667358221220878e8386fae85922734bcacdae6f306f482e16b8c1e59059d2f655fd3d8eefac64736f6c63430008090033",
  "linkReferences": {},
  "deployedLinkReferences": {}
}